{
  "_format": "hh-sol-artifact-1",
  "contractName": "TicketResale",
  "sourceName": "contracts/TicketResale.sol",
  "abi": [
    {
      "inputs": [],
      "stateMutability": "nonpayable",
      "type": "constructor"
    },
    {
      "inputs": [
        {
          "internalType": "address",
          "name": "owner",
          "type": "address"
        }
      ],
      "name": "OwnableInvalidOwner",
      "type": "error"
    },
    {
      "inputs": [
        {
          "internalType": "address",
          "name": "account",
          "type": "address"
        }
      ],
      "name": "OwnableUnauthorizedAccount",
      "type": "error"
    },
    {
      "anonymous": false,
      "inputs": [
        {
          "indexed": false,
          "internalType": "uint256",
          "name": "oldFee",
          "type": "uint256"
        },
        {
          "indexed": false,
          "internalType": "uint256",
          "name": "newFee",
          "type": "uint256"
        }
      ],
      "name": "FeeUpdated",
      "type": "event"
    },
    {
      "anonymous": false,
      "inputs": [
        {
          "indexed": true,
          "internalType": "address",
          "name": "eventContract",
          "type": "address"
        },
        {
          "indexed": true,
          "internalType": "uint256",
          "name": "tokenId",
          "type": "uint256"
        },
        {
          "indexed": true,
          "internalType": "address",
          "name": "seller",
          "type": "address"
        },
        {
          "indexed": false,
          "internalType": "uint256",
          "name": "listingId",
          "type": "uint256"
        }
      ],
      "name": "ListingCancelled",
      "type": "event"
    },
    {
      "anonymous": false,
      "inputs": [
        {
          "indexed": true,
          "internalType": "address",
          "name": "previousOwner",
          "type": "address"
        },
        {
          "indexed": true,
          "internalType": "address",
          "name": "newOwner",
          "type": "address"
        }
      ],
      "name": "OwnershipTransferred",
      "type": "event"
    },
    {
      "anonymous": false,
      "inputs": [
        {
          "indexed": true,
          "internalType": "address",
          "name": "eventContract",
          "type": "address"
        },
        {
          "indexed": true,
          "internalType": "uint256",
          "name": "tokenId",
          "type": "uint256"
        },
        {
          "indexed": true,
          "internalType": "address",
          "name": "seller",
          "type": "address"
        },
        {
          "indexed": false,
          "internalType": "uint256",
          "name": "price",
          "type": "uint256"
        },
        {
          "indexed": false,
          "internalType": "uint256",
          "name": "listingId",
          "type": "uint256"
        }
      ],
      "name": "TicketListed",
      "type": "event"
    },
    {
      "anonymous": false,
      "inputs": [
        {
          "indexed": true,
          "internalType": "address",
          "name": "eventContract",
          "type": "address"
        },
        {
          "indexed": true,
          "internalType": "uint256",
          "name": "tokenId",
          "type": "uint256"
        },
        {
          "indexed": true,
          "internalType": "address",
          "name": "seller",
          "type": "address"
        },
        {
          "indexed": false,
          "internalType": "address",
          "name": "buyer",
          "type": "address"
        },
        {
          "indexed": false,
          "internalType": "uint256",
          "name": "price",
          "type": "uint256"
        },
        {
          "indexed": false,
          "internalType": "uint256",
          "name": "listingId",
          "type": "uint256"
        }
      ],
      "name": "TicketSold",
      "type": "event"
    },
    {
      "inputs": [
        {
          "internalType": "uint256",
          "name": "listingId",
          "type": "uint256"
        }
      ],
      "name": "buyResaleTicket",
      "outputs": [],
      "stateMutability": "payable",
      "type": "function"
    },
    {
      "inputs": [
        {
          "internalType": "uint256",
          "name": "listingId",
          "type": "uint256"
        }
      ],
      "name": "cancelResaleListing",
      "outputs": [],
      "stateMutability": "nonpayable",
      "type": "function"
    },
    {
      "inputs": [
        {
          "internalType": "address",
          "name": "eventContract",
          "type": "address"
        },
        {
          "internalType": "uint256",
          "name": "tokenId",
          "type": "uint256"
        },
        {
          "internalType": "address",
          "name": "to",
          "type": "address"
        }
      ],
      "name": "emergencyReturnTicket",
      "outputs": [],
      "stateMutability": "nonpayable",
      "type": "function"
    },
    {
      "inputs": [],
      "name": "emergencyWithdraw",
      "outputs": [],
      "stateMutability": "nonpayable",
      "type": "function"
    },
    {
      "inputs": [
        {
          "internalType": "address",
          "name": "",
          "type": "address"
        },
        {
          "internalType": "uint256",
          "name": "",
          "type": "uint256"
        }
      ],
      "name": "eventTokenToListingId",
      "outputs": [
        {
          "internalType": "uint256",
          "name": "",
          "type": "uint256"
        }
      ],
      "stateMutability": "view",
      "type": "function"
    },
    {
      "inputs": [],
      "name": "getContractBalance",
      "outputs": [
        {
          "internalType": "uint256",
          "name": "",
          "type": "uint256"
        }
      ],
      "stateMutability": "view",
      "type": "function"
    },
    {
      "inputs": [
        {
          "internalType": "uint256",
          "name": "listingId",
          "type": "uint256"
        }
      ],
      "name": "getListing",
      "outputs": [
        {
          "components": [
            {
              "internalType": "uint256",
              "name": "listingId",
              "type": "uint256"
            },
            {
              "internalType": "address",
              "name": "eventContract",
              "type": "address"
            },
            {
              "internalType": "uint256",
              "name": "tokenId",
              "type": "uint256"
            },
            {
              "internalType": "address",
              "name": "seller",
              "type": "address"
            },
            {
              "internalType": "uint256",
              "name": "price",
              "type": "uint256"
            },
            {
              "internalType": "uint256",
              "name": "timestamp",
              "type": "uint256"
            },
            {
              "internalType": "bool",
              "name": "isActive",
              "type": "bool"
            },
            {
              "internalType": "string",
              "name": "metadataURI",
              "type": "string"
            }
          ],
          "internalType": "struct TicketResale.ResaleListing",
          "name": "",
          "type": "tuple"
        }
      ],
      "stateMutability": "view",
      "type": "function"
    },
    {
      "inputs": [
        {
          "internalType": "address",
          "name": "eventContract",
          "type": "address"
        }
      ],
      "name": "getResaleListings",
      "outputs": [
        {
          "internalType": "uint256[]",
          "name": "",
          "type": "uint256[]"
        }
      ],
      "stateMutability": "view",
      "type": "function"
    },
    {
      "inputs": [],
      "name": "getTotalListings",
      "outputs": [
        {
          "internalType": "uint256",
          "name": "",
          "type": "uint256"
        }
      ],
      "stateMutability": "view",
      "type": "function"
    },
    {
      "inputs": [
        {
          "internalType": "address",
          "name": "eventContract",
          "type": "address"
        },
        {
          "internalType": "uint256",
          "name": "tokenId",
          "type": "uint256"
        }
      ],
      "name": "isTicketListed",
      "outputs": [
        {
          "internalType": "bool",
          "name": "",
          "type": "bool"
        }
      ],
      "stateMutability": "view",
      "type": "function"
    },
    {
      "inputs": [
        {
          "internalType": "address",
          "name": "eventContract",
          "type": "address"
        },
        {
          "internalType": "uint256",
          "name": "tokenId",
          "type": "uint256"
        },
        {
          "internalType": "uint256",
          "name": "price",
          "type": "uint256"
        }
      ],
      "name": "listTicketForResale",
      "outputs": [
        {
          "internalType": "uint256",
          "name": "",
          "type": "uint256"
        }
      ],
      "stateMutability": "nonpayable",
      "type": "function"
    },
    {
      "inputs": [],
      "name": "listingFee",
      "outputs": [
        {
          "internalType": "uint256",
          "name": "",
          "type": "uint256"
        }
      ],
      "stateMutability": "view",
      "type": "function"
    },
    {
      "inputs": [
        {
          "internalType": "uint256",
          "name": "",
          "type": "uint256"
        }
      ],
      "name": "listings",
      "outputs": [
        {
          "internalType": "uint256",
          "name": "listingId",
          "type": "uint256"
        },
        {
          "internalType": "address",
          "name": "eventContract",
          "type": "address"
        },
        {
          "internalType": "uint256",
          "name": "tokenId",
          "type": "uint256"
        },
        {
          "internalType": "address",
          "name": "seller",
          "type": "address"
        },
        {
          "internalType": "uint256",
          "name": "price",
          "type": "uint256"
        },
        {
          "internalType": "uint256",
          "name": "timestamp",
          "type": "uint256"
        },
        {
          "internalType": "bool",
          "name": "isActive",
          "type": "bool"
        },
        {
          "internalType": "string",
          "name": "metadataURI",
          "type": "string"
        }
      ],
      "stateMutability": "view",
      "type": "function"
    },
    {
      "inputs": [
        {
          "internalType": "address",
          "name": "",
          "type": "address"
        },
        {
          "internalType": "address",
          "name": "",
          "type": "address"
        },
        {
          "internalType": "uint256",
          "name": "",
          "type": "uint256"
        },
        {
          "internalType": "bytes",
          "name": "",
          "type": "bytes"
        }
      ],
      "name": "onERC721Received",
      "outputs": [
        {
          "internalType": "bytes4",
          "name": "",
          "type": "bytes4"
        }
      ],
      "stateMutability": "nonpayable",
      "type": "function"
    },
    {
      "inputs": [],
      "name": "owner",
      "outputs": [
        {
          "internalType": "address",
          "name": "",
          "type": "address"
        }
      ],
      "stateMutability": "view",
      "type": "function"
    },
    {
      "inputs": [],
      "name": "platformFee",
      "outputs": [
        {
          "internalType": "uint256",
          "name": "",
          "type": "uint256"
        }
      ],
      "stateMutability": "view",
      "type": "function"
    },
    {
      "inputs": [],
      "name": "renounceOwnership",
      "outputs": [],
      "stateMutability": "nonpayable",
      "type": "function"
    },
    {
      "inputs": [
        {
          "internalType": "address",
          "name": "newOwner",
          "type": "address"
        }
      ],
      "name": "transferOwnership",
      "outputs": [],
      "stateMutability": "nonpayable",
      "type": "function"
    },
    {
      "inputs": [
        {
          "internalType": "uint256",
          "name": "newFee",
          "type": "uint256"
        }
      ],
      "name": "updateListingFee",
      "outputs": [],
      "stateMutability": "nonpayable",
      "type": "function"
    },
    {
      "inputs": [
        {
          "internalType": "uint256",
          "name": "newFee",
          "type": "uint256"
        }
      ],
      "name": "updatePlatformFee",
      "outputs": [],
      "stateMutability": "nonpayable",
      "type": "function"
    },
    {
      "inputs": [
        {
          "internalType": "address",
          "name": "",
          "type": "address"
        },
        {
          "internalType": "uint256",
          "name": "",
          "type": "uint256"
        }
      ],
      "name": "userListings",
      "outputs": [
        {
          "internalType": "uint256",
          "name": "",
          "type": "uint256"
        }
      ],
      "stateMutability": "view",
      "type": "function"
    },
    {
      "inputs": [],
      "name": "withdrawFees",
      "outputs": [],
      "stateMutability": "nonpayable",
      "type": "function"
    }
  ],
  "bytecode": "0x608060405260fa600155603260025534801561001a57600080fd5b50338061004157604051631e4fbdf760e01b81526000600482015260240160405180910390fd5b61004a81610050565b506100a0565b600080546001600160a01b038381166001600160a01b0319831681178455604051919092169283917f8be0079c531659141344cd1fd0a4f28419497f9722a3daafe3b4186f6b6457e09190a35050565b611b32806100af6000396000f3fe6080604052600436106101355760003560e01c806386cfa7d3116100ab578063aa0b59881161006f578063aa0b59881461037d578063db2e21bc1461039d578063de74e57b146103b2578063f2fde38b146103e6578063f79d91ae14610406578063fbf30c351461042657600080fd5b806386cfa7d3146102a0578063870eae9f146102c05780638da5cb5b146102f857806396e6814514610320578063a62493e21461034d57600080fd5b8063476343ee116100fd578063476343ee1461020d5780634c708819146102225780636a1b7ecc146102425780636f9fb98a14610258578063715018a61461026b5780637f4379411461028057600080fd5b8063107a274a1461013a578063150b7a02146101705780631d9c5d5c146101b457806326232a2e146101c957806338475934146101ed575b600080fd5b34801561014657600080fd5b5061015a610155366004611562565b61043b565b60405161016791906115c1565b60405180910390f35b34801561017c57600080fd5b5061019b61018b366004611667565b630a85bd0160e11b949350505050565b6040516001600160e01b03199091168152602001610167565b6101c76101c2366004611562565b6105dd565b005b3480156101d557600080fd5b506101df60015481565b604051908152602001610167565b3480156101f957600080fd5b506101c7610208366004611562565b6108fb565b34801561021957600080fd5b506101c7610aec565b34801561022e57600080fd5b506101c761023d366004611747565b610b75565b34801561024e57600080fd5b506101df60025481565b34801561026457600080fd5b50476101df565b34801561027757600080fd5b506101c7610ca1565b34801561028c57600080fd5b506101df61029b366004611789565b610cb5565b3480156102ac57600080fd5b506101df6102bb3660046117be565b611056565b3480156102cc57600080fd5b506101df6102db3660046117be565b600560209081526000928352604080842090915290825290205481565b34801561030457600080fd5b506000546040516001600160a01b039091168152602001610167565b34801561032c57600080fd5b5061034061033b3660046117ea565b611087565b604051610167919061180e565b34801561035957600080fd5b5061036d6103683660046117be565b611205565b6040519015158152602001610167565b34801561038957600080fd5b506101c7610398366004611562565b611253565b3480156103a957600080fd5b506101c76112eb565b3480156103be57600080fd5b506103d26103cd366004611562565b611338565b604051610167989796959493929190611852565b3480156103f257600080fd5b506101c76104013660046117ea565b611418565b34801561041257600080fd5b506101c7610421366004611562565b611456565b34801561043257600080fd5b506003546101df565b6104976040518061010001604052806000815260200160006001600160a01b031681526020016000815260200160006001600160a01b031681526020016000815260200160008152602001600015158152602001606081525090565b6000821180156104a957506003548211155b6104ce5760405162461bcd60e51b81526004016104c5906118b1565b60405180910390fd5b6000828152600460208181526040928390208351610100810185528154815260018201546001600160a01b039081169382019390935260028201549481019490945260038101549091166060840152908101546080830152600581015460a0830152600681015460ff16151560c083015260078101805460e084019190610554906118e1565b80601f0160208091040260200160405190810160405280929190818152602001828054610580906118e1565b80156105cd5780601f106105a2576101008083540402835291602001916105cd565b820191906000526020600020905b8154815290600101906020018083116105b057829003601f168201915b5050505050815250509050919050565b806000811180156105f057506003548111155b61060c5760405162461bcd60e51b81526004016104c5906118b1565b60008181526004602052604090206006015460ff166106655760405162461bcd60e51b81526020600482015260156024820152744c697374696e67206973206e6f742061637469766560581b60448201526064016104c5565b600082815260046020526040902060038101546001600160a01b031633036106cf5760405162461bcd60e51b815260206004820152601a60248201527f43616e6e6f742062757920796f7572206f776e207469636b657400000000000060448201526064016104c5565b806004015434101561071a5760405162461bcd60e51b8152602060048201526014602482015273125b9cdd59999a58da595b9d081c185e5b595b9d60621b60448201526064016104c5565b60068101805460ff1916905560048101546000906103e89061073d906019611931565b6107479190611948565b9050600081836004015461075b919061196a565b60018401546002850154604051632142170760e11b81529293506001600160a01b039091169182916342842e0e9161079a91309133919060040161197d565b600060405180830381600087803b1580156107b457600080fd5b505af11580156107c8573d6000803e3d6000fd5b50505060038501546040516001600160a01b03909116915083156108fc029084906000818181858888f19350505050158015610808573d6000803e3d6000fd5b50600080546040516001600160a01b039091169185156108fc02918691818181858888f19350505050158015610842573d6000803e3d6000fd5b50836004015434111561088e57600484015433906108fc90610864903461196a565b6040518115909202916000818181858888f1935050505015801561088c573d6000803e3d6000fd5b505b600384015460028501546001860154600487015460408051338152602081019290925281018a90526001600160a01b0393841693909116907fa3c6b822deb3e2068a60f979dec68f9c79a8ea5b9240465885ab9f31a0f58d4c9060600160405180910390a4505050505050565b8060008111801561090e57506003548111155b61092a5760405162461bcd60e51b81526004016104c5906118b1565b60008181526004602052604090206006015460ff166109835760405162461bcd60e51b81526020600482015260156024820152744c697374696e67206973206e6f742061637469766560581b60448201526064016104c5565b60008281526004602052604090206003015482906001600160a01b03163314610a015760405162461bcd60e51b815260206004820152602a60248201527f4f6e6c79206c697374696e67206f776e65722063616e20706572666f726d20746044820152693434b99030b1ba34b7b760b11b60648201526084016104c5565b60008381526004602081905260409182902060068101805460ff191690556001810154600382015460028301549451632142170760e11b815292946001600160a01b039283169485946342842e0e94610a6194309491169290910161197d565b600060405180830381600087803b158015610a7b57600080fd5b505af1158015610a8f573d6000803e3d6000fd5b505050506003820154600283015460018401546040518881526001600160a01b0393841693909116907f7e9346997a866f9da27c72b74f12d9f30db039f0ac25228e3c63a916977f3cca9060200160405180910390a45050505050565b610af46114e5565b4780610b385760405162461bcd60e51b81526020600482015260136024820152724e6f206665657320746f20776974686472617760681b60448201526064016104c5565b600080546040516001600160a01b039091169183156108fc02918491818181858888f19350505050158015610b71573d6000803e3d6000fd5b5050565b610b7d6114e5565b6040516331a9108f60e11b815260048101839052839030906001600160a01b03831690636352211e90602401602060405180830381865afa158015610bc6573d6000803e3d6000fd5b505050506040513d601f19601f82011682018060405250810190610bea91906119a1565b6001600160a01b031614610c395760405162461bcd60e51b8152602060048201526016602482015275151a58dad95d081b9bdd081a5b8818dbdb9d1c9858dd60521b60448201526064016104c5565b604051632142170760e11b81526001600160a01b038216906342842e0e90610c699030908690889060040161197d565b600060405180830381600087803b158015610c8357600080fd5b505af1158015610c97573d6000803e3d6000fd5b5050505050505050565b610ca96114e5565b610cb36000611512565b565b60008160008111610d085760405162461bcd60e51b815260206004820152601c60248201527f5072696365206d7573742062652067726561746572207468616e20300000000060448201526064016104c5565b6001600160a01b038516610d5e5760405162461bcd60e51b815260206004820152601e60248201527f496e76616c6964206576656e7420636f6e74726163742061646472657373000060448201526064016104c5565b6001600160a01b03851660009081526005602090815260408083208784528252808320548352600490915290206006015460ff1615610dd75760405162461bcd60e51b8152602060048201526015602482015274151a58dad95d08185b1c9958591e481b1a5cdd1959605a1b60448201526064016104c5565b6040516331a9108f60e11b815260048101859052859033906001600160a01b03831690636352211e90602401602060405180830381865afa158015610e20573d6000803e3d6000fd5b505050506040513d601f19601f82011682018060405250810190610e4491906119a1565b6001600160a01b031614610e915760405162461bcd60e51b81526020600482015260146024820152732737ba103a3432903a34b1b5b2ba1037bbb732b960611b60448201526064016104c5565b604051632142170760e11b81526001600160a01b038216906342842e0e90610ec190339030908a9060040161197d565b600060405180830381600087803b158015610edb57600080fd5b505af1158015610eef573d6000803e3d6000fd5b505060038054925090506000610f04836119be565b90915550506003805460408051610100810182528281526001600160a01b038a811660208084019182528385018c81523360608601908152608086018d81524260a08801908152600160c089018181528a518088018c52600080825260e08c019182528d81526004988990529b909b208a518155975191880180546001600160a01b0319908116938b169390931790559451600288015592519a860180549093169a90961699909917905596519082015590516005820155935160068501805460ff19169115159190911790559051919290916007820190610fe69082611a26565b5050506001600160a01b03871660008181526005602090815260408083208a845282529182902084905581518881529081018490523392899290917f627b73a64e6c35cd27d4c99297424f4cd0c84e8303beda39c0816fc9c451bb6d910160405180910390a49695505050505050565b6006602052816000526040600020818154811061107257600080fd5b90600052602060002001600091509150505481565b6060600060035467ffffffffffffffff8111156110a6576110a6611651565b6040519080825280602002602001820160405280156110cf578160200160208202803683370190505b509050600060015b6003548111611160576000818152600460205260409020600101546001600160a01b03868116911614801561111d575060008181526004602052604090206006015460ff165b1561114e578083838151811061113557611135611ae6565b60209081029190910101528161114a816119be565b9250505b80611158816119be565b9150506110d7565b5060008167ffffffffffffffff81111561117c5761117c611651565b6040519080825280602002602001820160405280156111a5578160200160208202803683370190505b50905060005b828110156111fc578381815181106111c5576111c5611ae6565b60200260200101518282815181106111df576111df611ae6565b6020908102919091010152806111f4816119be565b9150506111ab565b50949350505050565b6001600160a01b03821660009081526005602090815260408083208484529091528120548015801590611249575060008181526004602052604090206006015460ff165b9150505b92915050565b61125b6114e5565b6103e88111156112a55760405162461bcd60e51b81526020600482015260156024820152744665652063616e6e6f74206578636565642031302560581b60448201526064016104c5565b600180549082905560408051828152602081018490527f528d9479e9f9889a87a3c30c7f7ba537e5e59c4c85a37733b16e57c62df6130291015b60405180910390a15050565b6112f36114e5565b4780610b385760405162461bcd60e51b81526020600482015260146024820152734e6f2066756e647320746f20776974686472617760601b60448201526064016104c5565b60046020819052600091825260409091208054600182015460028301546003840154948401546005850154600686015460078701805496986001600160a01b039687169895979616959394929360ff9092169291611395906118e1565b80601f01602080910402602001604051908101604052809291908181526020018280546113c1906118e1565b801561140e5780601f106113e35761010080835404028352916020019161140e565b820191906000526020600020905b8154815290600101906020018083116113f157829003601f168201915b5050505050905088565b6114206114e5565b6001600160a01b03811661144a57604051631e4fbdf760e01b8152600060048201526024016104c5565b61145381611512565b50565b61145e6114e5565b6101f48111156114a75760405162461bcd60e51b81526020600482015260146024820152734665652063616e6e6f742065786365656420352560601b60448201526064016104c5565b600280549082905560408051828152602081018490527f528d9479e9f9889a87a3c30c7f7ba537e5e59c4c85a37733b16e57c62df6130291016112df565b6000546001600160a01b03163314610cb35760405163118cdaa760e01b81523360048201526024016104c5565b600080546001600160a01b038381166001600160a01b0319831681178455604051919092169283917f8be0079c531659141344cd1fd0a4f28419497f9722a3daafe3b4186f6b6457e09190a35050565b60006020828403121561157457600080fd5b5035919050565b6000815180845260005b818110156115a157602081850181015186830182015201611585565b506000602082860101526020601f19601f83011685010191505092915050565b60208152815160208201526000602083015160018060a01b038082166040850152604085015160608501528060608601511660808501525050608083015160a083015260a083015160c083015260c083015161162160e084018215159052565b5060e08301516101008381015261124961012084018261157b565b6001600160a01b038116811461145357600080fd5b634e487b7160e01b600052604160045260246000fd5b6000806000806080858703121561167d57600080fd5b84356116888161163c565b935060208501356116988161163c565b925060408501359150606085013567ffffffffffffffff808211156116bc57600080fd5b818701915087601f8301126116d057600080fd5b8135818111156116e2576116e2611651565b604051601f8201601f19908116603f0116810190838211818310171561170a5761170a611651565b816040528281528a602084870101111561172357600080fd5b82602086016020830137600060208483010152809550505050505092959194509250565b60008060006060848603121561175c57600080fd5b83356117678161163c565b925060208401359150604084013561177e8161163c565b809150509250925092565b60008060006060848603121561179e57600080fd5b83356117a98161163c565b95602085013595506040909401359392505050565b600080604083850312156117d157600080fd5b82356117dc8161163c565b946020939093013593505050565b6000602082840312156117fc57600080fd5b81356118078161163c565b9392505050565b6020808252825182820181905260009190848201906040850190845b818110156118465783518352928401929184019160010161182a565b50909695505050505050565b8881526001600160a01b03888116602083015260408201889052861660608201526080810185905260a0810184905282151560c082015261010060e082018190526000906118a28382018561157b565b9b9a5050505050505050505050565b602080825260169082015275131a5cdd1a5b99c8191bd95cc81b9bdd08195e1a5cdd60521b604082015260600190565b600181811c908216806118f557607f821691505b60208210810361191557634e487b7160e01b600052602260045260246000fd5b50919050565b634e487b7160e01b600052601160045260246000fd5b808202811582820484141761124d5761124d61191b565b60008261196557634e487b7160e01b600052601260045260246000fd5b500490565b8181038181111561124d5761124d61191b565b6001600160a01b039384168152919092166020820152604081019190915260600190565b6000602082840312156119b357600080fd5b81516118078161163c565b6000600182016119d0576119d061191b565b5060010190565b601f821115611a2157600081815260208120601f850160051c810160208610156119fe5750805b601f850160051c820191505b81811015611a1d57828155600101611a0a565b5050505b505050565b815167ffffffffffffffff811115611a4057611a40611651565b611a5481611a4e84546118e1565b846119d7565b602080601f831160018114611a895760008415611a715750858301515b600019600386901b1c1916600185901b178555611a1d565b600085815260208120601f198616915b82811015611ab857888601518255948401946001909101908401611a99565b5085821015611ad65787850151600019600388901b60f8161c191681555b5050505050600190811b01905550565b634e487b7160e01b600052603260045260246000fdfea2646970667358221220d3e8f362801bddd4029fa3a0cb9a9d402a9571448e401895a2a0dc345f8cb47464736f6c63430008140033",
  "linkReferences": {},
  "deployedLinkReferences": {}
}