{
  "_format": "hh-sol-artifact-1",
  "contractName": "EventTicket",
  "sourceName": "contracts/EventTicket.sol",
  "abi": [
    {
      "inputs": [
        {
          "internalType": "string",
          "name": "_eventName",
          "type": "string"
        },
        {
          "internalType": "string",
          "name": "_eventDescription",
          "type": "string"
        },
        {
          "internalType": "uint256",
          "name": "_maxOccupancy",
          "type": "uint256"
        },
        {
          "internalType": "uint256[]",
          "name": "_tierPrices",
          "type": "uint256[]"
        },
        {
          "internalType": "string[]",
          "name": "_tierNames",
          "type": "string[]"
        },
        {
          "internalType": "uint256[]",
          "name": "_tierQuantities",
          "type": "uint256[]"
        },
        {
          "internalType": "uint256",
          "name": "_eventDate",
          "type": "uint256"
        },
        {
          "internalType": "address",
          "name": "_eventOrganizer",
          "type": "address"
        }
      ],
      "stateMutability": "nonpayable",
      "type": "constructor"
    },
    {
      "inputs": [
        {
          "internalType": "address",
          "name": "sender",
          "type": "address"
        },
        {
          "internalType": "uint256",
          "name": "tokenId",
          "type": "uint256"
        },
        {
          "internalType": "address",
          "name": "owner",
          "type": "address"
        }
      ],
      "name": "ERC721IncorrectOwner",
      "type": "error"
    },
    {
      "inputs": [
        {
          "internalType": "address",
          "name": "operator",
          "type": "address"
        },
        {
          "internalType": "uint256",
          "name": "tokenId",
          "type": "uint256"
        }
      ],
      "name": "ERC721InsufficientApproval",
      "type": "error"
    },
    {
      "inputs": [
        {
          "internalType": "address",
          "name": "approver",
          "type": "address"
        }
      ],
      "name": "ERC721InvalidApprover",
      "type": "error"
    },
    {
      "inputs": [
        {
          "internalType": "address",
          "name": "operator",
          "type": "address"
        }
      ],
      "name": "ERC721InvalidOperator",
      "type": "error"
    },
    {
      "inputs": [
        {
          "internalType": "address",
          "name": "owner",
          "type": "address"
        }
      ],
      "name": "ERC721InvalidOwner",
      "type": "error"
    },
    {
      "inputs": [
        {
          "internalType": "address",
          "name": "receiver",
          "type": "address"
        }
      ],
      "name": "ERC721InvalidReceiver",
      "type": "error"
    },
    {
      "inputs": [
        {
          "internalType": "address",
          "name": "sender",
          "type": "address"
        }
      ],
      "name": "ERC721InvalidSender",
      "type": "error"
    },
    {
      "inputs": [
        {
          "internalType": "uint256",
          "name": "tokenId",
          "type": "uint256"
        }
      ],
      "name": "ERC721NonexistentToken",
      "type": "error"
    },
    {
      "inputs": [
        {
          "internalType": "address",
          "name": "owner",
          "type": "address"
        }
      ],
      "name": "OwnableInvalidOwner",
      "type": "error"
    },
    {
      "inputs": [
        {
          "internalType": "address",
          "name": "account",
          "type": "address"
        }
      ],
      "name": "OwnableUnauthorizedAccount",
      "type": "error"
    },
    {
      "anonymous": false,
      "inputs": [
        {
          "indexed": true,
          "internalType": "address",
          "name": "owner",
          "type": "address"
        },
        {
          "indexed": true,
          "internalType": "address",
          "name": "approved",
          "type": "address"
        },
        {
          "indexed": true,
          "internalType": "uint256",
          "name": "tokenId",
          "type": "uint256"
        }
      ],
      "name": "Approval",
      "type": "event"
    },
    {
      "anonymous": false,
      "inputs": [
        {
          "indexed": true,
          "internalType": "address",
          "name": "owner",
          "type": "address"
        },
        {
          "indexed": true,
          "internalType": "address",
          "name": "operator",
          "type": "address"
        },
        {
          "indexed": false,
          "internalType": "bool",
          "name": "approved",
          "type": "bool"
        }
      ],
      "name": "ApprovalForAll",
      "type": "event"
    },
    {
      "anonymous": false,
      "inputs": [
        {
          "indexed": true,
          "internalType": "address",
          "name": "previousOwner",
          "type": "address"
        },
        {
          "indexed": true,
          "internalType": "address",
          "name": "newOwner",
          "type": "address"
        }
      ],
      "name": "OwnershipTransferred",
      "type": "event"
    },
    {
      "anonymous": false,
      "inputs": [
        {
          "indexed": true,
          "internalType": "uint256",
          "name": "tokenId",
          "type": "uint256"
        },
        {
          "indexed": true,
          "internalType": "address",
          "name": "to",
          "type": "address"
        },
        {
          "indexed": false,
          "internalType": "uint256",
          "name": "seatNumber",
          "type": "uint256"
        },
        {
          "indexed": false,
          "internalType": "string",
          "name": "tier",
          "type": "string"
        },
        {
          "indexed": false,
          "internalType": "string",
          "name": "metadataURI",
          "type": "string"
        }
      ],
      "name": "TicketMinted",
      "type": "event"
    },
    {
      "anonymous": false,
      "inputs": [
        {
          "indexed": true,
          "internalType": "address",
          "name": "buyer",
          "type": "address"
        },
        {
          "indexed": true,
          "internalType": "uint256",
          "name": "tokenId",
          "type": "uint256"
        },
        {
          "indexed": false,
          "internalType": "string",
          "name": "tier",
          "type": "string"
        },
        {
          "indexed": false,
          "internalType": "uint256",
          "name": "price",
          "type": "uint256"
        },
        {
          "indexed": false,
          "internalType": "uint256",
          "name": "seatNumber",
          "type": "uint256"
        }
      ],
      "name": "TicketPurchased",
      "type": "event"
    },
    {
      "anonymous": false,
      "inputs": [
        {
          "indexed": false,
          "internalType": "string",
          "name": "tierName",
          "type": "string"
        },
        {
          "indexed": false,
          "internalType": "uint256",
          "name": "tierPrice",
          "type": "uint256"
        },
        {
          "indexed": false,
          "internalType": "uint256",
          "name": "tierQuantity",
          "type": "uint256"
        }
      ],
      "name": "TierAdded",
      "type": "event"
    },
    {
      "anonymous": false,
      "inputs": [
        {
          "indexed": true,
          "internalType": "address",
          "name": "from",
          "type": "address"
        },
        {
          "indexed": true,
          "internalType": "address",
          "name": "to",
          "type": "address"
        },
        {
          "indexed": true,
          "internalType": "uint256",
          "name": "tokenId",
          "type": "uint256"
        }
      ],
      "name": "Transfer",
      "type": "event"
    },
    {
      "inputs": [
        {
          "internalType": "address",
          "name": "to",
          "type": "address"
        },
        {
          "internalType": "uint256",
          "name": "tokenId",
          "type": "uint256"
        }
      ],
      "name": "approve",
      "outputs": [],
      "stateMutability": "nonpayable",
      "type": "function"
    },
    {
      "inputs": [
        {
          "internalType": "address",
          "name": "owner",
          "type": "address"
        }
      ],
      "name": "balanceOf",
      "outputs": [
        {
          "internalType": "uint256",
          "name": "",
          "type": "uint256"
        }
      ],
      "stateMutability": "view",
      "type": "function"
    },
    {
      "inputs": [
        {
          "internalType": "string",
          "name": "tierName",
          "type": "string"
        },
        {
          "internalType": "string",
          "name": "metadataURI",
          "type": "string"
        }
      ],
      "name": "buyTicket",
      "outputs": [
        {
          "internalType": "uint256",
          "name": "",
          "type": "uint256"
        }
      ],
      "stateMutability": "payable",
      "type": "function"
    },
    {
      "inputs": [],
      "name": "eventDate",
      "outputs": [
        {
          "internalType": "uint256",
          "name": "",
          "type": "uint256"
        }
      ],
      "stateMutability": "view",
      "type": "function"
    },
    {
      "inputs": [],
      "name": "eventDescription",
      "outputs": [
        {
          "internalType": "string",
          "name": "",
          "type": "string"
        }
      ],
      "stateMutability": "view",
      "type": "function"
    },
    {
      "inputs": [],
      "name": "eventName",
      "outputs": [
        {
          "internalType": "string",
          "name": "",
          "type": "string"
        }
      ],
      "stateMutability": "view",
      "type": "function"
    },
    {
      "inputs": [],
      "name": "eventOrganizer",
      "outputs": [
        {
          "internalType": "address",
          "name": "",
          "type": "address"
        }
      ],
      "stateMutability": "view",
      "type": "function"
    },
    {
      "inputs": [],
      "name": "getAllTierNames",
      "outputs": [
        {
          "internalType": "string[]",
          "name": "",
          "type": "string[]"
        }
      ],
      "stateMutability": "view",
      "type": "function"
    },
    {
      "inputs": [
        {
          "internalType": "uint256",
          "name": "tokenId",
          "type": "uint256"
        }
      ],
      "name": "getApproved",
      "outputs": [
        {
          "internalType": "address",
          "name": "",
          "type": "address"
        }
      ],
      "stateMutability": "view",
      "type": "function"
    },
    {
      "inputs": [],
      "name": "getAvailableSeats",
      "outputs": [
        {
          "internalType": "uint256",
          "name": "",
          "type": "uint256"
        }
      ],
      "stateMutability": "view",
      "type": "function"
    },
    {
      "inputs": [
        {
          "internalType": "uint256",
          "name": "tokenId",
          "type": "uint256"
        }
      ],
      "name": "getSeatNumber",
      "outputs": [
        {
          "internalType": "uint256",
          "name": "",
          "type": "uint256"
        }
      ],
      "stateMutability": "view",
      "type": "function"
    },
    {
      "inputs": [
        {
          "internalType": "uint256",
          "name": "tokenId",
          "type": "uint256"
        }
      ],
      "name": "getTicket",
      "outputs": [
        {
          "components": [
            {
              "internalType": "uint256",
              "name": "tokenId",
              "type": "uint256"
            },
            {
              "internalType": "uint256",
              "name": "seatNumber",
              "type": "uint256"
            },
            {
              "internalType": "string",
              "name": "tier",
              "type": "string"
            },
            {
              "internalType": "string",
              "name": "metadataURI",
              "type": "string"
            },
            {
              "internalType": "address",
              "name": "owner",
              "type": "address"
            },
            {
              "internalType": "bool",
              "name": "exists",
              "type": "bool"
            }
          ],
          "internalType": "struct EventTicket.Ticket",
          "name": "",
          "type": "tuple"
        }
      ],
      "stateMutability": "view",
      "type": "function"
    },
    {
      "inputs": [
        {
          "internalType": "uint256",
          "name": "tokenId",
          "type": "uint256"
        }
      ],
      "name": "getTicketTier",
      "outputs": [
        {
          "internalType": "string",
          "name": "",
          "type": "string"
        }
      ],
      "stateMutability": "view",
      "type": "function"
    },
    {
      "inputs": [
        {
          "internalType": "string",
          "name": "tierName",
          "type": "string"
        }
      ],
      "name": "getTier",
      "outputs": [
        {
          "components": [
            {
              "internalType": "string",
              "name": "name",
              "type": "string"
            },
            {
              "internalType": "uint256",
              "name": "price",
              "type": "uint256"
            },
            {
              "internalType": "uint256",
              "name": "quantity",
              "type": "uint256"
            },
            {
              "internalType": "uint256",
              "name": "minted",
              "type": "uint256"
            },
            {
              "internalType": "bool",
              "name": "exists",
              "type": "bool"
            }
          ],
          "internalType": "struct EventTicket.Tier",
          "name": "",
          "type": "tuple"
        }
      ],
      "stateMutability": "view",
      "type": "function"
    },
    {
      "inputs": [],
      "name": "getTotalMinted",
      "outputs": [
        {
          "internalType": "uint256",
          "name": "",
          "type": "uint256"
        }
      ],
      "stateMutability": "view",
      "type": "function"
    },
    {
      "inputs": [
        {
          "internalType": "address",
          "name": "user",
          "type": "address"
        }
      ],
      "name": "getUserTickets",
      "outputs": [
        {
          "internalType": "uint256[]",
          "name": "",
          "type": "uint256[]"
        }
      ],
      "stateMutability": "view",
      "type": "function"
    },
    {
      "inputs": [
        {
          "internalType": "address",
          "name": "owner",
          "type": "address"
        },
        {
          "internalType": "address",
          "name": "operator",
          "type": "address"
        }
      ],
      "name": "isApprovedForAll",
      "outputs": [
        {
          "internalType": "bool",
          "name": "",
          "type": "bool"
        }
      ],
      "stateMutability": "view",
      "type": "function"
    },
    {
      "inputs": [
        {
          "internalType": "uint256",
          "name": "seatNumber",
          "type": "uint256"
        }
      ],
      "name": "isSeatOccupied",
      "outputs": [
        {
          "internalType": "bool",
          "name": "",
          "type": "bool"
        }
      ],
      "stateMutability": "view",
      "type": "function"
    },
    {
      "inputs": [],
      "name": "maxOccupancy",
      "outputs": [
        {
          "internalType": "uint256",
          "name": "",
          "type": "uint256"
        }
      ],
      "stateMutability": "view",
      "type": "function"
    },
    {
      "inputs": [
        {
          "internalType": "address",
          "name": "to",
          "type": "address"
        },
        {
          "internalType": "uint256",
          "name": "seatNumber",
          "type": "uint256"
        },
        {
          "internalType": "string",
          "name": "tierName",
          "type": "string"
        },
        {
          "internalType": "string",
          "name": "metadataURI",
          "type": "string"
        }
      ],
      "name": "mintTicket",
      "outputs": [
        {
          "internalType": "uint256",
          "name": "",
          "type": "uint256"
        }
      ],
      "stateMutability": "nonpayable",
      "type": "function"
    },
    {
      "inputs": [],
      "name": "name",
      "outputs": [
        {
          "internalType": "string",
          "name": "",
          "type": "string"
        }
      ],
      "stateMutability": "view",
      "type": "function"
    },
    {
      "inputs": [],
      "name": "owner",
      "outputs": [
        {
          "internalType": "address",
          "name": "",
          "type": "address"
        }
      ],
      "stateMutability": "view",
      "type": "function"
    },
    {
      "inputs": [
        {
          "internalType": "uint256",
          "name": "tokenId",
          "type": "uint256"
        }
      ],
      "name": "ownerOf",
      "outputs": [
        {
          "internalType": "address",
          "name": "",
          "type": "address"
        }
      ],
      "stateMutability": "view",
      "type": "function"
    },
    {
      "inputs": [],
      "name": "renounceOwnership",
      "outputs": [],
      "stateMutability": "nonpayable",
      "type": "function"
    },
    {
      "inputs": [
        {
          "internalType": "address",
          "name": "from",
          "type": "address"
        },
        {
          "internalType": "address",
          "name": "to",
          "type": "address"
        },
        {
          "internalType": "uint256",
          "name": "tokenId",
          "type": "uint256"
        }
      ],
      "name": "safeTransferFrom",
      "outputs": [],
      "stateMutability": "nonpayable",
      "type": "function"
    },
    {
      "inputs": [
        {
          "internalType": "address",
          "name": "from",
          "type": "address"
        },
        {
          "internalType": "address",
          "name": "to",
          "type": "address"
        },
        {
          "internalType": "uint256",
          "name": "tokenId",
          "type": "uint256"
        },
        {
          "internalType": "bytes",
          "name": "data",
          "type": "bytes"
        }
      ],
      "name": "safeTransferFrom",
      "outputs": [],
      "stateMutability": "nonpayable",
      "type": "function"
    },
    {
      "inputs": [
        {
          "internalType": "uint256",
          "name": "",
          "type": "uint256"
        }
      ],
      "name": "seatOccupied",
      "outputs": [
        {
          "internalType": "bool",
          "name": "",
          "type": "bool"
        }
      ],
      "stateMutability": "view",
      "type": "function"
    },
    {
      "inputs": [
        {
          "internalType": "address",
          "name": "operator",
          "type": "address"
        },
        {
          "internalType": "bool",
          "name": "approved",
          "type": "bool"
        }
      ],
      "name": "setApprovalForAll",
      "outputs": [],
      "stateMutability": "nonpayable",
      "type": "function"
    },
    {
      "inputs": [
        {
          "internalType": "bytes4",
          "name": "interfaceId",
          "type": "bytes4"
        }
      ],
      "name": "supportsInterface",
      "outputs": [
        {
          "internalType": "bool",
          "name": "",
          "type": "bool"
        }
      ],
      "stateMutability": "view",
      "type": "function"
    },
    {
      "inputs": [],
      "name": "symbol",
      "outputs": [
        {
          "internalType": "string",
          "name": "",
          "type": "string"
        }
      ],
      "stateMutability": "view",
      "type": "function"
    },
    {
      "inputs": [
        {
          "internalType": "uint256",
          "name": "",
          "type": "uint256"
        }
      ],
      "name": "tickets",
      "outputs": [
        {
          "internalType": "uint256",
          "name": "tokenId",
          "type": "uint256"
        },
        {
          "internalType": "uint256",
          "name": "seatNumber",
          "type": "uint256"
        },
        {
          "internalType": "string",
          "name": "tier",
          "type": "string"
        },
        {
          "internalType": "string",
          "name": "metadataURI",
          "type": "string"
        },
        {
          "internalType": "address",
          "name": "owner",
          "type": "address"
        },
        {
          "internalType": "bool",
          "name": "exists",
          "type": "bool"
        }
      ],
      "stateMutability": "view",
      "type": "function"
    },
    {
      "inputs": [
        {
          "internalType": "uint256",
          "name": "",
          "type": "uint256"
        }
      ],
      "name": "tierNames",
      "outputs": [
        {
          "internalType": "string",
          "name": "",
          "type": "string"
        }
      ],
      "stateMutability": "view",
      "type": "function"
    },
    {
      "inputs": [
        {
          "internalType": "string",
          "name": "",
          "type": "string"
        }
      ],
      "name": "tiers",
      "outputs": [
        {
          "internalType": "string",
          "name": "name",
          "type": "string"
        },
        {
          "internalType": "uint256",
          "name": "price",
          "type": "uint256"
        },
        {
          "internalType": "uint256",
          "name": "quantity",
          "type": "uint256"
        },
        {
          "internalType": "uint256",
          "name": "minted",
          "type": "uint256"
        },
        {
          "internalType": "bool",
          "name": "exists",
          "type": "bool"
        }
      ],
      "stateMutability": "view",
      "type": "function"
    },
    {
      "inputs": [
        {
          "internalType": "uint256",
          "name": "",
          "type": "uint256"
        }
      ],
      "name": "tokenIdToSeatNumber",
      "outputs": [
        {
          "internalType": "uint256",
          "name": "",
          "type": "uint256"
        }
      ],
      "stateMutability": "view",
      "type": "function"
    },
    {
      "inputs": [
        {
          "internalType": "uint256",
          "name": "",
          "type": "uint256"
        }
      ],
      "name": "tokenIdToTier",
      "outputs": [
        {
          "internalType": "string",
          "name": "",
          "type": "string"
        }
      ],
      "stateMutability": "view",
      "type": "function"
    },
    {
      "inputs": [
        {
          "internalType": "uint256",
          "name": "tokenId",
          "type": "uint256"
        }
      ],
      "name": "tokenURI",
      "outputs": [
        {
          "internalType": "string",
          "name": "",
          "type": "string"
        }
      ],
      "stateMutability": "view",
      "type": "function"
    },
    {
      "inputs": [
        {
          "internalType": "address",
          "name": "from",
          "type": "address"
        },
        {
          "internalType": "address",
          "name": "to",
          "type": "address"
        },
        {
          "internalType": "uint256",
          "name": "tokenId",
          "type": "uint256"
        }
      ],
      "name": "transferFrom",
      "outputs": [],
      "stateMutability": "nonpayable",
      "type": "function"
    },
    {
      "inputs": [
        {
          "internalType": "address",
          "name": "newOwner",
          "type": "address"
        }
      ],
      "name": "transferOwnership",
      "outputs": [],
      "stateMutability": "nonpayable",
      "type": "function"
    },
    {
      "inputs": [
        {
          "internalType": "address",
          "name": "",
          "type": "address"
        },
        {
          "internalType": "uint256",
          "name": "",
          "type": "uint256"
        }
      ],
      "name": "userTickets",
      "outputs": [
        {
          "internalType": "uint256",
          "name": "",
          "type": "uint256"
        }
      ],
      "stateMutability": "view",
      "type": "function"
    }
  ],
  "bytecode": "0x60806040523480156200001157600080fd5b506040516200366138038062003661833981016040819052620000349162000697565b604080518082019091526005815264115591539560da1b60208201528190899060006200006283826200082d565b5060016200007182826200082d565b5050506001600160a01b038116620000a457604051631e4fbdf760e01b8152600060048201526024015b60405180910390fd5b620000af8162000423565b506007620000be89826200082d565b506008620000cd88826200082d565b506009869055600a829055600b80546001600160a01b0319166001600160a01b0383161790558251845114620001465760405162461bcd60e51b815260206004820152601b60248201527f5469657220617272617973206c656e677468206d69736d61746368000000000060448201526064016200009b565b60005b8451811015620004145760008582815181106200016a576200016a620008f9565b60200260200101515111620001c25760405162461bcd60e51b815260206004820152601960248201527f54696572206e616d652063616e6e6f7420626520656d7074790000000000000060448201526064016200009b565b6000868281518110620001d957620001d9620008f9565b6020026020010151116200023a5760405162461bcd60e51b815260206004820152602160248201527f54696572207072696365206d7573742062652067726561746572207468616e206044820152600360fc1b60648201526084016200009b565b6000848281518110620002515762000251620008f9565b602002602001015111620002b45760405162461bcd60e51b8152602060048201526024808201527f54696572207175616e74697479206d75737420626520677265617465722074686044820152630616e20360e41b60648201526084016200009b565b6040518060a00160405280868381518110620002d457620002d4620008f9565b60200260200101518152602001878381518110620002f657620002f6620008f9565b60200260200101518152602001858381518110620003185762000318620008f9565b602002602001015181526020016000815260200160011515815250600e8683815181106200034a576200034a620008f9565b60200260200101516040516200036191906200090f565b908152604051908190036020019020815181906200038090826200082d565b506020820151600182015560408201516002820155606082015160038201556080909101516004909101805460ff19169115159190911790558451601490869083908110620003d357620003d3620008f9565b60209081029190910181015182546001810184556000938452919092200190620003fe90826200082d565b50806200040b816200092d565b91505062000149565b50505050505050505062000955565b600680546001600160a01b038381166001600160a01b0319831681179093556040519116919082907f8be0079c531659141344cd1fd0a4f28419497f9722a3daafe3b4186f6b6457e090600090a35050565b634e487b7160e01b600052604160045260246000fd5b604051601f8201601f191681016001600160401b0381118282101715620004b657620004b662000475565b604052919050565b60005b83811015620004db578181015183820152602001620004c1565b50506000910152565b600082601f830112620004f657600080fd5b81516001600160401b0381111562000512576200051262000475565b62000527601f8201601f19166020016200048b565b8181528460208386010111156200053d57600080fd5b62000550826020830160208701620004be565b949350505050565b60006001600160401b0382111562000574576200057462000475565b5060051b60200190565b600082601f8301126200059057600080fd5b81516020620005a9620005a38362000558565b6200048b565b82815260059290921b84018101918181019086841115620005c957600080fd5b8286015b84811015620005e65780518352918301918301620005cd565b509695505050505050565b600082601f8301126200060357600080fd5b8151602062000616620005a38362000558565b82815260059290921b840181019181810190868411156200063657600080fd5b8286015b84811015620005e65780516001600160401b038111156200065b5760008081fd5b6200066b8986838b0101620004e4565b8452509183019183016200063a565b80516001600160a01b03811681146200069257600080fd5b919050565b600080600080600080600080610100898b031215620006b557600080fd5b88516001600160401b0380821115620006cd57600080fd5b620006db8c838d01620004e4565b995060208b0151915080821115620006f257600080fd5b620007008c838d01620004e4565b985060408b0151975060608b01519150808211156200071e57600080fd5b6200072c8c838d016200057e565b965060808b01519150808211156200074357600080fd5b620007518c838d01620005f1565b955060a08b01519150808211156200076857600080fd5b50620007778b828c016200057e565b93505060c089015191506200078f60e08a016200067a565b90509295985092959890939650565b600181811c90821680620007b357607f821691505b602082108103620007d457634e487b7160e01b600052602260045260246000fd5b50919050565b601f8211156200082857600081815260208120601f850160051c81016020861015620008035750805b601f850160051c820191505b8181101562000824578281556001016200080f565b5050505b505050565b81516001600160401b0381111562000849576200084962000475565b62000861816200085a84546200079e565b84620007da565b602080601f831160018114620008995760008415620008805750858301515b600019600386901b1c1916600185901b17855562000824565b600085815260208120601f198616915b82811015620008ca57888601518255948401946001909101908401620008a9565b5085821015620008e95787850151600019600388901b60f8161c191681555b5050505050600190811b01905550565b634e487b7160e01b600052603260045260246000fd5b6000825162000923818460208701620004be565b9190910192915050565b6000600182016200094e57634e487b7160e01b600052601160045260246000fd5b5060010190565b612cfc80620009656000396000f3fe6080604052600436106102305760003560e01c80637623b4c31161012e578063cf260baf116100ab578063e985e9c51161006f578063e985e9c5146106aa578063f2fde38b146106ca578063f36596da146106ea578063f6828ab31461070a578063fe551b051461073757600080fd5b8063cf260baf146105eb578063d021ebdb1461060b578063d04537651461062d578063de1ae0c41461064d578063dfef64da1461067d57600080fd5b80639434571b116100f25780639434571b1461056157806395d89b4114610576578063a22cb4651461058b578063b88d4fde146105ab578063c87b56dd146105cb57600080fd5b80637623b4c3146104d95780637dc379fa146104ec5780638043c9c0146105195780638da5cb5b1461052e578063906d895d1461054c57600080fd5b806323b872dd116101bc57806350b447121161018057806350b44712146104325780636352211e1461046457806370a0823114610484578063715018a6146104a45780637514d7cb146104b957600080fd5b806323b872dd1461038c57806332e48cde146103ac5780633a301ff8146103dc57806342842e0e146103fc5780634bfbe5df1461041c57600080fd5b806306fdde031161020357806306fdde03146102e8578063081812fc146102fd578063095ea7b3146103355780630ca1c5c91461035757806316e2983e1461037657600080fd5b806301fe99131461023557806301ffc9a71461026b5780630431a3251461029b5780630484a22f146102bb575b600080fd5b34801561024157600080fd5b50610255610250366004612408565b610768565b6040516102629190612471565b60405180910390f35b34801561027757600080fd5b5061028b61028636600461249a565b610842565b6040519015158152602001610262565b3480156102a757600080fd5b506102556102b6366004612408565b610894565b3480156102c757600080fd5b506102db6102d63660046124d3565b61092e565b60405161026291906124ee565b3480156102f457600080fd5b50610255610999565b34801561030957600080fd5b5061031d610318366004612408565b610a2b565b6040516001600160a01b039091168152602001610262565b34801561034157600080fd5b50610355610350366004612532565b610a54565b005b34801561036357600080fd5b50600c545b604051908152602001610262565b34801561038257600080fd5b5061036860095481565b34801561039857600080fd5b506103556103a736600461255c565b610a63565b3480156103b857600080fd5b5061028b6103c7366004612408565b60009081526012602052604090205460ff1690565b3480156103e857600080fd5b506103686103f7366004612408565b610aee565b34801561040857600080fd5b5061035561041736600461255c565b610b33565b34801561042857600080fd5b50610368600a5481565b34801561043e57600080fd5b5061045261044d366004612408565b610b53565b60405161026296959493929190612598565b34801561047057600080fd5b5061031d61047f366004612408565b610ca8565b34801561049057600080fd5b5061036861049f3660046124d3565b610cb3565b3480156104b057600080fd5b50610355610cfb565b3480156104c557600080fd5b50600b5461031d906001600160a01b031681565b6103686104e7366004612699565b610d0f565b3480156104f857600080fd5b5061050c610507366004612408565b6110c8565b60405161026291906126fd565b34801561052557600080fd5b506102556112c0565b34801561053a57600080fd5b506006546001600160a01b031661031d565b34801561055857600080fd5b506103686112cd565b34801561056d57600080fd5b506102556112e4565b34801561058257600080fd5b506102556112f1565b34801561059757600080fd5b506103556105a6366004612775565b611300565b3480156105b757600080fd5b506103556105c63660046127b1565b61130b565b3480156105d757600080fd5b506102556105e6366004612408565b611323565b3480156105f757600080fd5b50610368610606366004612532565b61140f565b34801561061757600080fd5b50610620611440565b604051610262919061282d565b34801561063957600080fd5b5061036861064836600461288f565b611519565b34801561065957600080fd5b5061028b610668366004612408565b60126020526000908152604090205460ff1681565b34801561068957600080fd5b5061069d610698366004612901565b61191e565b6040516102629190612936565b3480156106b657600080fd5b5061028b6106c5366004612988565b611a83565b3480156106d657600080fd5b506103556106e53660046124d3565b611ab1565b3480156106f657600080fd5b50610255610705366004612408565b611aef565b34801561071657600080fd5b50610368610725366004612408565b60106020526000908152604090205481565b34801561074357600080fd5b50610757610752366004612901565b611b1a565b6040516102629594939291906129bb565b6060600061077583610ca8565b6001600160a01b0316036107a45760405162461bcd60e51b815260040161079b906129f4565b60405180910390fd5b600082815260116020526040902080546107bd90612a22565b80601f01602080910402602001604051908101604052809291908181526020018280546107e990612a22565b80156108365780601f1061080b57610100808354040283529160200191610836565b820191906000526020600020905b81548152906001019060200180831161081957829003601f168201915b50505050509050919050565b60006001600160e01b031982166380ac58cd60e01b148061087357506001600160e01b03198216635b5e139f60e01b145b8061088e57506301ffc9a760e01b6001600160e01b03198316145b92915050565b601160205260009081526040902080546108ad90612a22565b80601f01602080910402602001604051908101604052809291908181526020018280546108d990612a22565b80156109265780601f106108fb57610100808354040283529160200191610926565b820191906000526020600020905b81548152906001019060200180831161090957829003601f168201915b505050505081565b6001600160a01b03811660009081526013602090815260409182902080548351818402810184019094528084526060939283018282801561083657602002820191906000526020600020905b81548152602001906001019080831161097a5750505050509050919050565b6060600080546109a890612a22565b80601f01602080910402602001604051908101604052809291908181526020018280546109d490612a22565b8015610a215780601f106109f657610100808354040283529160200191610a21565b820191906000526020600020905b815481529060010190602001808311610a0457829003601f168201915b5050505050905090565b6000610a3682611bdf565b506000828152600460205260409020546001600160a01b031661088e565b610a5f828233611c18565b5050565b6001600160a01b038216610a8d57604051633250574960e11b81526000600482015260240161079b565b6000610a9a838333611c25565b9050836001600160a01b0316816001600160a01b031614610ae8576040516364283d7b60e01b81526001600160a01b038086166004830152602482018490528216604482015260640161079b565b50505050565b600080610afa83610ca8565b6001600160a01b031603610b205760405162461bcd60e51b815260040161079b906129f4565b5060009081526010602052604090205490565b610b4e8383836040518060200160405280600081525061130b565b505050565b600f6020526000908152604090208054600182015460028301805492939192610b7b90612a22565b80601f0160208091040260200160405190810160405280929190818152602001828054610ba790612a22565b8015610bf45780601f10610bc957610100808354040283529160200191610bf4565b820191906000526020600020905b815481529060010190602001808311610bd757829003601f168201915b505050505090806003018054610c0990612a22565b80601f0160208091040260200160405190810160405280929190818152602001828054610c3590612a22565b8015610c825780601f10610c5757610100808354040283529160200191610c82565b820191906000526020600020905b815481529060010190602001808311610c6557829003601f168201915b505050600490930154919250506001600160a01b0381169060ff600160a01b9091041686565b600061088e82611bdf565b60006001600160a01b038216610cdf576040516322718ad960e21b81526000600482015260240161079b565b506001600160a01b031660009081526003602052604090205490565b610d03611d1e565b610d0d6000611d4b565b565b600082600e81604051610d229190612a5c565b9081526040519081900360200190206004015460ff16610d545760405162461bcd60e51b815260040161079b90612a78565b600e81604051610d649190612a5c565b908152602001604051809103902060020154600e82604051610d869190612a5c565b90815260200160405180910390206003015410610dd55760405162461bcd60e51b815260206004820152600d60248201526c151a595c881cdbdb19081bdd5d609a1b604482015260640161079b565b600e81604051610de59190612a5c565b908152602001604051809103902060010154341015610e3d5760405162461bcd60e51b8152602060048201526014602482015273125b9cdd59999a58da595b9d081c185e5b595b9d60621b604482015260640161079b565b6000610e47611d9d565b905060008111610e8e5760405162461bcd60e51b81526020600482015260126024820152714e6f20617661696c61626c6520736561747360701b604482015260640161079b565b600c8054906000610e9e83612abb565b9091555050600c546000828152601260209081526040808320805460ff19166001908117909155815160c0810183528581528084018781528184018c8152606083018c905233608084015260a08301849052878752600f909552929094208451815591519082015590516002820190610f179082612b1a565b5060608201516003820190610f2c9082612b1a565b5060808201516004909101805460a0909301511515600160a01b026001600160a81b03199093166001600160a01b0390921691909117919091179055600081815260106020908152604080832085905560119091529020610f8d8782612b1a565b5033600090815260136020908152604082208054600181018255908352912001819055610fba8186611de0565b600e86604051610fca9190612a5c565b9081526040519081900360200190206003018054906000610fea83612abb565b9190505550610ff93382611df8565b600b546040516001600160a01b03909116903480156108fc02916000818181858888f19350505050158015611032573d6000803e3d6000fd5b5080336001600160a01b03167f4b80be411364f8c0793961f27b72d32f01be5157e8f82b8f5befc42b4abf8ba688348660405161107193929190612bda565b60405180910390a3336001600160a01b0316817f57520de40fe50e907af045f1f31dca7dd0beffff906127cc0df2a21cd83273588489896040516110b793929190612bff565b60405180910390a395945050505050565b61110c6040518060c001604052806000815260200160008152602001606081526020016060815260200160006001600160a01b031681526020016000151581525090565b600061111783610ca8565b6001600160a01b03160361113d5760405162461bcd60e51b815260040161079b906129f4565b600f60008381526020019081526020016000206040518060c0016040529081600082015481526020016001820154815260200160028201805461117f90612a22565b80601f01602080910402602001604051908101604052809291908181526020018280546111ab90612a22565b80156111f85780601f106111cd576101008083540402835291602001916111f8565b820191906000526020600020905b8154815290600101906020018083116111db57829003601f168201915b5050505050815260200160038201805461121190612a22565b80601f016020809104026020016040519081016040528092919081815260200182805461123d90612a22565b801561128a5780601f1061125f5761010080835404028352916020019161128a565b820191906000526020600020905b81548152906001019060200180831161126d57829003601f168201915b5050509183525050600491909101546001600160a01b0381166020830152600160a01b900460ff16151560409091015292915050565b600780546108ad90612a22565b6000600c546009546112df9190612c34565b905090565b600880546108ad90612a22565b6060600180546109a890612a22565b610a5f338383611e12565b611316848484610a63565b610ae83385858585611eb1565b6060600061133083610ca8565b6001600160a01b0316036113565760405162461bcd60e51b815260040161079b906129f4565b6000828152600d60205260408120805461136f90612a22565b80601f016020809104026020016040519081016040528092919081815260200182805461139b90612a22565b80156113e85780601f106113bd576101008083540402835291602001916113e8565b820191906000526020600020905b8154815290600101906020018083116113cb57829003601f168201915b505050505090506000815111156113ff5792915050565b61140883611fdc565b9392505050565b6013602052816000526040600020818154811061142b57600080fd5b90600052602060002001600091509150505481565b60606014805480602002602001604051908101604052809291908181526020016000905b8282101561151057838290600052602060002001805461148390612a22565b80601f01602080910402602001604051908101604052809291908181526020018280546114af90612a22565b80156114fc5780601f106114d1576101008083540402835291602001916114fc565b820191906000526020600020905b8154815290600101906020018083116114df57829003601f168201915b505050505081526020019060010190611464565b50505050905090565b600b546000906001600160a01b0316331461158a5760405162461bcd60e51b815260206004820152602b60248201527f4f6e6c79206576656e74206f7267616e697a65722063616e2063616c6c20746860448201526a34b990333ab731ba34b7b760a91b606482015260840161079b565b8360008111801561159d57506009548111155b6115df5760405162461bcd60e51b815260206004820152601360248201527224b73b30b634b21039b2b0ba10373ab6b132b960691b604482015260640161079b565b60008181526012602052604090205460ff16156116365760405162461bcd60e51b815260206004820152601560248201527414d9585d08185b1c9958591e481bd8d8dd5c1a5959605a1b604482015260640161079b565b83600e816040516116479190612a5c565b9081526040519081900360200190206004015460ff166116795760405162461bcd60e51b815260040161079b90612a78565b600e816040516116899190612a5c565b908152602001604051809103902060020154600e826040516116ab9190612a5c565b908152602001604051809103902060030154106116fa5760405162461bcd60e51b815260206004820152600d60248201526c151a595c881cdbdb19081bdd5d609a1b604482015260640161079b565b6001600160a01b0387166117505760405162461bcd60e51b815260206004820152601b60248201527f43616e6e6f74206d696e7420746f207a65726f20616464726573730000000000604482015260640161079b565b600c805490600061176083612abb565b9091555050600c546000878152601260209081526040808320805460ff19166001908117909155815160c0810183528581528084018c81528184018c8152606083018c90526001600160a01b038f16608084015260a08301849052878752600f9095529290942084518155915190820155905160028201906117e29082612b1a565b50606082015160038201906117f79082612b1a565b5060808201516004909101805460a0909301511515600160a01b026001600160a81b03199093166001600160a01b039092169190911791909117905560008181526010602090815260408083208a9055601190915290206118588782612b1a565b506001600160a01b03881660009081526013602090815260408220805460018101825590835291200181905561188e8186611de0565b600e8660405161189e9190612a5c565b90815260405190819003602001902060030180549060006118be83612abb565b91905055506118cd8882611df8565b876001600160a01b0316817f57520de40fe50e907af045f1f31dca7dd0beffff906127cc0df2a21cd832735889898960405161190b93929190612bff565b60405180910390a3979650505050505050565b6119526040518060a00160405280606081526020016000815260200160008152602001600081526020016000151581525090565b600e826040516119629190612a5c565b9081526040519081900360200190206004015460ff166119945760405162461bcd60e51b815260040161079b90612a78565b600e826040516119a49190612a5c565b90815260200160405180910390206040518060a00160405290816000820180546119cd90612a22565b80601f01602080910402602001604051908101604052809291908181526020018280546119f990612a22565b8015611a465780601f10611a1b57610100808354040283529160200191611a46565b820191906000526020600020905b815481529060010190602001808311611a2957829003601f168201915b505050918352505060018201546020820152600282015460408201526003820154606082015260049091015460ff16151560809091015292915050565b6001600160a01b03918216600090815260056020908152604080832093909416825291909152205460ff1690565b611ab9611d1e565b6001600160a01b038116611ae357604051631e4fbdf760e01b81526000600482015260240161079b565b611aec81611d4b565b50565b60148181548110611aff57600080fd5b9060005260206000200160009150905080546108ad90612a22565b8051602081830181018051600e82529282019190930120915280548190611b4090612a22565b80601f0160208091040260200160405190810160405280929190818152602001828054611b6c90612a22565b8015611bb95780601f10611b8e57610100808354040283529160200191611bb9565b820191906000526020600020905b815481529060010190602001808311611b9c57829003601f168201915b505050506001830154600284015460038501546004909501549394919390925060ff1685565b6000818152600260205260408120546001600160a01b03168061088e57604051637e27328960e01b81526004810184905260240161079b565b610b4e8383836001612050565b6000828152600260205260408120546001600160a01b0390811690831615611c5257611c52818486612156565b6001600160a01b03811615611c9057611c6f600085600080612050565b6001600160a01b038116600090815260036020526040902080546000190190555b6001600160a01b03851615611cbf576001600160a01b0385166000908152600360205260409020805460010190555b60008481526002602052604080822080546001600160a01b0319166001600160a01b0389811691821790925591518793918516917fddf252ad1be2c89b69c2b068fc378daa952ba7f163c4a11628f55a4df523b3ef91a4949350505050565b6006546001600160a01b03163314610d0d5760405163118cdaa760e01b815233600482015260240161079b565b600680546001600160a01b038381166001600160a01b0319831681179093556040519116919082907f8be0079c531659141344cd1fd0a4f28419497f9722a3daafe3b4186f6b6457e090600090a35050565b600060015b6009548111611dd85760008181526012602052604090205460ff16611dc657919050565b80611dd081612abb565b915050611da2565b506000905090565b6000828152600d60205260409020610b4e8282612b1a565b610a5f8282604051806020016040528060008152506121ba565b6001600160a01b038216611e4457604051630b61174360e31b81526001600160a01b038316600482015260240161079b565b6001600160a01b03838116600081815260056020908152604080832094871680845294825291829020805460ff191686151590811790915591519182527f17307eab39ab6107e8899845ad3d59bd9653f200f220920489ca2b5937696c31910160405180910390a3505050565b6001600160a01b0383163b15611fd557604051630a85bd0160e11b81526001600160a01b0384169063150b7a0290611ef3908890889087908790600401612c47565b6020604051808303816000875af1925050508015611f2e575060408051601f3d908101601f19168201909252611f2b91810190612c7a565b60015b611f97573d808015611f5c576040519150601f19603f3d011682016040523d82523d6000602084013e611f61565b606091505b508051600003611f8f57604051633250574960e11b81526001600160a01b038516600482015260240161079b565b805160208201fd5b6001600160e01b03198116630a85bd0160e11b14611fd357604051633250574960e11b81526001600160a01b038516600482015260240161079b565b505b5050505050565b6060611fe782611bdf565b506000611fff60408051602081019091526000815290565b9050600081511161201f5760405180602001604052806000815250611408565b80612029846121d2565b60405160200161203a929190612c97565b6040516020818303038152906040529392505050565b808061206457506001600160a01b03821615155b1561212657600061207484611bdf565b90506001600160a01b038316158015906120a05750826001600160a01b0316816001600160a01b031614155b80156120b357506120b18184611a83565b155b156120dc5760405163a9fbf51f60e01b81526001600160a01b038416600482015260240161079b565b81156121245783856001600160a01b0316826001600160a01b03167f8c5be1e5ebec7d5bd14f71427d1e84f3dd0314c0f7b2291e5b200ac8c7c3b92560405160405180910390a45b505b5050600090815260046020526040902080546001600160a01b0319166001600160a01b0392909216919091179055565b612161838383612265565b610b4e576001600160a01b03831661218f57604051637e27328960e01b81526004810182905260240161079b565b60405163177e802f60e01b81526001600160a01b03831660048201526024810182905260440161079b565b6121c483836122cb565b610b4e336000858585611eb1565b606060006121df83612330565b600101905060008167ffffffffffffffff8111156121ff576121ff6125ed565b6040519080825280601f01601f191660200182016040528015612229576020820181803683370190505b5090508181016020015b600019016f181899199a1a9b1b9c1cb0b131b232b360811b600a86061a8153600a850494508461223357509392505050565b60006001600160a01b038316158015906122c35750826001600160a01b0316846001600160a01b0316148061229f575061229f8484611a83565b806122c357506000828152600460205260409020546001600160a01b038481169116145b949350505050565b6001600160a01b0382166122f557604051633250574960e11b81526000600482015260240161079b565b600061230383836000611c25565b90506001600160a01b03811615610b4e576040516339e3563760e11b81526000600482015260240161079b565b60008072184f03e93ff9f4daa797ed6e38ed64bf6a1f0160401b831061236f5772184f03e93ff9f4daa797ed6e38ed64bf6a1f0160401b830492506040015b6d04ee2d6d415b85acef8100000000831061239b576d04ee2d6d415b85acef8100000000830492506020015b662386f26fc1000083106123b957662386f26fc10000830492506010015b6305f5e10083106123d1576305f5e100830492506008015b61271083106123e557612710830492506004015b606483106123f7576064830492506002015b600a831061088e5760010192915050565b60006020828403121561241a57600080fd5b5035919050565b60005b8381101561243c578181015183820152602001612424565b50506000910152565b6000815180845261245d816020860160208601612421565b601f01601f19169290920160200192915050565b6020815260006114086020830184612445565b6001600160e01b031981168114611aec57600080fd5b6000602082840312156124ac57600080fd5b813561140881612484565b80356001600160a01b03811681146124ce57600080fd5b919050565b6000602082840312156124e557600080fd5b611408826124b7565b6020808252825182820181905260009190848201906040850190845b818110156125265783518352928401929184019160010161250a565b50909695505050505050565b6000806040838503121561254557600080fd5b61254e836124b7565b946020939093013593505050565b60008060006060848603121561257157600080fd5b61257a846124b7565b9250612588602085016124b7565b9150604084013590509250925092565b86815285602082015260c0604082015260006125b760c0830187612445565b82810360608401526125c98187612445565b6001600160a01b03959095166080840152505090151560a090910152949350505050565b634e487b7160e01b600052604160045260246000fd5b600067ffffffffffffffff8084111561261e5761261e6125ed565b604051601f8501601f19908116603f01168101908282118183101715612646576126466125ed565b8160405280935085815286868601111561265f57600080fd5b858560208301376000602087830101525050509392505050565b600082601f83011261268a57600080fd5b61140883833560208501612603565b600080604083850312156126ac57600080fd5b823567ffffffffffffffff808211156126c457600080fd5b6126d086838701612679565b935060208501359150808211156126e657600080fd5b506126f385828601612679565b9150509250929050565b6020815281516020820152602082015160408201526000604083015160c0606084015261272d60e0840182612445565b90506060840151601f1984830301608085015261274a8282612445565b91505060018060a01b0360808501511660a084015260a0840151151560c08401528091505092915050565b6000806040838503121561278857600080fd5b612791836124b7565b9150602083013580151581146127a657600080fd5b809150509250929050565b600080600080608085870312156127c757600080fd5b6127d0856124b7565b93506127de602086016124b7565b925060408501359150606085013567ffffffffffffffff81111561280157600080fd5b8501601f8101871361281257600080fd5b61282187823560208401612603565b91505092959194509250565b6000602080830181845280855180835260408601915060408160051b870101925083870160005b8281101561288257603f19888603018452612870858351612445565b94509285019290850190600101612854565b5092979650505050505050565b600080600080608085870312156128a557600080fd5b6128ae856124b7565b935060208501359250604085013567ffffffffffffffff808211156128d257600080fd5b6128de88838901612679565b935060608701359150808211156128f457600080fd5b5061282187828801612679565b60006020828403121561291357600080fd5b813567ffffffffffffffff81111561292a57600080fd5b6122c384828501612679565b602081526000825160a0602084015261295260c0840182612445565b90506020840151604084015260408401516060840152606084015160808401526080840151151560a08401528091505092915050565b6000806040838503121561299b57600080fd5b6129a4836124b7565b91506129b2602084016124b7565b90509250929050565b60a0815260006129ce60a0830188612445565b905085602083015284604083015283606083015282151560808301529695505050505050565b602080825260149082015273151bdad95b88191bd95cc81b9bdd08195e1a5cdd60621b604082015260600190565b600181811c90821680612a3657607f821691505b602082108103612a5657634e487b7160e01b600052602260045260246000fd5b50919050565b60008251612a6e818460208701612421565b9190910192915050565b602080825260139082015272151a595c88191bd95cc81b9bdd08195e1a5cdd606a1b604082015260600190565b634e487b7160e01b600052601160045260246000fd5b600060018201612acd57612acd612aa5565b5060010190565b601f821115610b4e57600081815260208120601f850160051c81016020861015612afb5750805b601f850160051c820191505b81811015611fd357828155600101612b07565b815167ffffffffffffffff811115612b3457612b346125ed565b612b4881612b428454612a22565b84612ad4565b602080601f831160018114612b7d5760008415612b655750858301515b600019600386901b1c1916600185901b178555611fd3565b600085815260208120601f198616915b82811015612bac57888601518255948401946001909101908401612b8d565b5085821015612bca5787850151600019600388901b60f8161c191681555b5050505050600190811b01905550565b606081526000612bed6060830186612445565b60208301949094525060400152919050565b838152606060208201526000612c186060830185612445565b8281036040840152612c2a8185612445565b9695505050505050565b8181038181111561088e5761088e612aa5565b6001600160a01b0385811682528416602082015260408101839052608060608201819052600090612c2a90830184612445565b600060208284031215612c8c57600080fd5b815161140881612484565b60008351612ca9818460208801612421565b835190830190612cbd818360208801612421565b0194935050505056fea2646970667358221220db32e4d0e29899d8bafb580f7681662b0344bb3313de7e39b88335c265c2699464736f6c63430008140033",
  "linkReferences": {},
  "deployedLinkReferences": {}
}